:020000040000FA
:020000000528D1
:080008001828873083168100DF
:100010008312831686018501831290019E3086002B
:100020008510051410308100A0308B006400162864
:1000300010308100910A05301102031D68289101DA
:10004000900A2830100203182A289E308600851056
:100050000514682832301002031835289E308600B7
:10006000101868280230850668283C3010020318F2
:1000700041280230860606141018682802308506CA
:1000800068286430100203184A28733086008514EB
:10009000051068286E30100203185528733086004A
:1000A000101C682801308506682878301002031873
:1000B00063281030101C0014860686151018682856
:1000C0000130850668289E30860085100514900151
:0600D000A0308B000900C6
:02400E00FD3F74
:00000001FF
